{
  "_format": "hh-sol-artifact-1",
  "contractName": "Events",
  "sourceName": "contracts/Events.sol",
  "abi": [
    {
      "inputs": [
        {
          "internalType": "address",
          "name": "_claimsContractAddress",
          "type": "address"
        },
        {
          "internalType": "address",
          "name": "_identityNFTContractAddress",
          "type": "address"
        }
      ],
      "stateMutability": "nonpayable",
      "type": "constructor"
    },
    {
      "inputs": [
        {
          "internalType": "uint256",
          "name": "coverId",
          "type": "uint256"
        },
        {
          "internalType": "uint256",
          "name": "LossAmount",
          "type": "uint256"
        },
        {
          "internalType": "uint256",
          "name": "rootCauseId",
          "type": "uint256"
        }
      ],
      "name": "addEvent",
      "outputs": [],
      "stateMutability": "nonpayable",
      "type": "function"
    },
    {
      "inputs": [],
      "name": "getEvents",
      "outputs": [
        {
          "components": [
            {
              "internalType": "uint256",
              "name": "coverId",
              "type": "uint256"
            },
            {
              "internalType": "uint256",
              "name": "lossAmount",
              "type": "uint256"
            },
            {
              "internalType": "uint256",
              "name": "rootCauseId",
              "type": "uint256"
            }
          ],
          "internalType": "struct Events.Event[]",
          "name": "",
          "type": "tuple[]"
        }
      ],
      "stateMutability": "view",
      "type": "function"
    },
    {
      "inputs": [],
      "name": "owner",
      "outputs": [
        {
          "internalType": "address",
          "name": "",
          "type": "address"
        }
      ],
      "stateMutability": "view",
      "type": "function"
    }
  ],
  "bytecode": "0x608060405234801561001057600080fd5b50604051610a3c380380610a3c8339818101604052810190610032919061015e565b336000806101000a81548173ffffffffffffffffffffffffffffffffffffffff021916908373ffffffffffffffffffffffffffffffffffffffff16021790555081600160006101000a81548173ffffffffffffffffffffffffffffffffffffffff021916908373ffffffffffffffffffffffffffffffffffffffff16021790555080600260006101000a81548173ffffffffffffffffffffffffffffffffffffffff021916908373ffffffffffffffffffffffffffffffffffffffff160217905550505061019e565b600080fd5b600073ffffffffffffffffffffffffffffffffffffffff82169050919050565b600061012b82610100565b9050919050565b61013b81610120565b811461014657600080fd5b50565b60008151905061015881610132565b92915050565b60008060408385031215610175576101746100fb565b5b600061018385828601610149565b925050602061019485828601610149565b9150509250929050565b61088f806101ad6000396000f3fe608060405234801561001057600080fd5b50600436106100415760003560e01c8063404aa8f9146100465780638da5cb5b14610064578063f639bd6b14610082575b600080fd5b61004e61009e565b60405161005b9190610590565b60405180910390f35b61006c61011b565b60405161007991906105f3565b60405180910390f35b61009c6004803603810190610097919061063f565b61013f565b005b60606003805480602002602001604051908101604052809291908181526020016000905b8282101561011257838290600052602060002090600302016040518060600160405290816000820154815260200160018201548152602001600282015481525050815260200190600101906100c2565b50505050905090565b60008054906101000a900473ffffffffffffffffffffffffffffffffffffffff1681565b61017d6040518060400160405280601681526020017f72656163686564204576656e7420636f6e7472616374000000000000000000008152506102fd565b61018633610396565b6101c5576040517f08c379a00000000000000000000000000000000000000000000000000000000081526004016101bc90610715565b60405180910390fd5b6003604051806060016040528085815260200184815260200183815250908060018154018082558091505060019003906000526020600020906003020160009091909190915060008201518160000155602082015181600101556040820151816002015550506102696040518060400160405280601881526020017f5570646174696e6720636c61696d7320636f6e747261637400000000000000008152506102fd565b600160009054906101000a900473ffffffffffffffffffffffffffffffffffffffff1673ffffffffffffffffffffffffffffffffffffffff1663de1694a484836040518363ffffffff1660e01b81526004016102c6929190610744565b600060405180830381600087803b1580156102e057600080fd5b505af11580156102f4573d6000803e3d6000fd5b50505050505050565b6103938160405160240161031191906107f5565b6040516020818303038152906040527f41304fac000000000000000000000000000000000000000000000000000000007bffffffffffffffffffffffffffffffffffffffffffffffffffffffff19166020820180517bffffffffffffffffffffffffffffffffffffffffffffffffffffffff838183161783525050505061045d565b50565b60006001600260009054906101000a900473ffffffffffffffffffffffffffffffffffffffff1673ffffffffffffffffffffffffffffffffffffffff166370a08231846040518263ffffffff1660e01b81526004016103f591906105f3565b60206040518083038186803b15801561040d57600080fd5b505afa158015610421573d6000803e3d6000fd5b505050506040513d601f19601f82011682018060405250810190610445919061082c565b106104535760019050610458565b600090505b919050565b60008151905060006a636f6e736f6c652e6c6f679050602083016000808483855afa5050505050565b600081519050919050565b600082825260208201905092915050565b6000819050602082019050919050565b6000819050919050565b6104c5816104b2565b82525050565b6060820160008201516104e160008501826104bc565b5060208201516104f460208501826104bc565b50604082015161050760408501826104bc565b50505050565b600061051983836104cb565b60608301905092915050565b6000602082019050919050565b600061053d82610486565b6105478185610491565b9350610552836104a2565b8060005b8381101561058357815161056a888261050d565b975061057583610525565b925050600181019050610556565b5085935050505092915050565b600060208201905081810360008301526105aa8184610532565b905092915050565b600073ffffffffffffffffffffffffffffffffffffffff82169050919050565b60006105dd826105b2565b9050919050565b6105ed816105d2565b82525050565b600060208201905061060860008301846105e4565b92915050565b600080fd5b61061c816104b2565b811461062757600080fd5b50565b60008135905061063981610613565b92915050565b6000806000606084860312156106585761065761060e565b5b60006106668682870161062a565b93505060206106778682870161062a565b92505060406106888682870161062a565b9150509250925092565b600082825260208201905092915050565b7f4f6e6c7920636c61696d73206d616e61676572732063616e2061646420616e2060008201527f6576656e74000000000000000000000000000000000000000000000000000000602082015250565b60006106ff602583610692565b915061070a826106a3565b604082019050919050565b6000602082019050818103600083015261072e816106f2565b9050919050565b61073e816104b2565b82525050565b60006040820190506107596000830185610735565b6107666020830184610735565b9392505050565b600081519050919050565b60005b8381101561079657808201518184015260208101905061077b565b838111156107a5576000848401525b50505050565b6000601f19601f8301169050919050565b60006107c78261076d565b6107d18185610692565b93506107e1818560208601610778565b6107ea816107ab565b840191505092915050565b6000602082019050818103600083015261080f81846107bc565b905092915050565b60008151905061082681610613565b92915050565b6000602082840312156108425761084161060e565b5b600061085084828501610817565b9150509291505056fea26469706673582212201d273a0a9c3226fc8a3db9c79d7af344e48be6289e4c6bdb1da54284326140a764736f6c63430008090033",
  "linkReferences": {},
  "deployedLinkReferences": {}
}