{
  "_format": "hh-sol-artifact-1",
  "contractName": "IdentityNFT",
  "sourceName": "contracts/IdentityNFT.sol",
  "abi": [
    {
      "inputs": [
        {
          "internalType": "string",
          "name": "tokenName",
          "type": "string"
        },
        {
          "internalType": "string",
          "name": "tokenSymbol",
          "type": "string"
        }
      ],
      "stateMutability": "nonpayable",
      "type": "constructor"
    },
    {
      "anonymous": false,
      "inputs": [
        {
          "indexed": true,
          "internalType": "address",
          "name": "owner",
          "type": "address"
        },
        {
          "indexed": true,
          "internalType": "address",
          "name": "approved",
          "type": "address"
        },
        {
          "indexed": true,
          "internalType": "uint256",
          "name": "tokenId",
          "type": "uint256"
        }
      ],
      "name": "Approval",
      "type": "event"
    },
    {
      "anonymous": false,
      "inputs": [
        {
          "indexed": true,
          "internalType": "address",
          "name": "owner",
          "type": "address"
        },
        {
          "indexed": true,
          "internalType": "address",
          "name": "operator",
          "type": "address"
        },
        {
          "indexed": false,
          "internalType": "bool",
          "name": "approved",
          "type": "bool"
        }
      ],
      "name": "ApprovalForAll",
      "type": "event"
    },
    {
      "anonymous": false,
      "inputs": [
        {
          "indexed": true,
          "internalType": "address",
          "name": "from",
          "type": "address"
        },
        {
          "indexed": true,
          "internalType": "address",
          "name": "to",
          "type": "address"
        },
        {
          "indexed": true,
          "internalType": "uint256",
          "name": "tokenId",
          "type": "uint256"
        }
      ],
      "name": "Transfer",
      "type": "event"
    },
    {
      "inputs": [
        {
          "internalType": "uint256",
          "name": "",
          "type": "uint256"
        }
      ],
      "name": "ClaimsManagers",
      "outputs": [
        {
          "internalType": "address",
          "name": "",
          "type": "address"
        }
      ],
      "stateMutability": "view",
      "type": "function"
    },
    {
      "inputs": [
        {
          "internalType": "address",
          "name": "to",
          "type": "address"
        },
        {
          "internalType": "uint256",
          "name": "tokenId",
          "type": "uint256"
        }
      ],
      "name": "approve",
      "outputs": [],
      "stateMutability": "nonpayable",
      "type": "function"
    },
    {
      "inputs": [
        {
          "internalType": "address",
          "name": "owner",
          "type": "address"
        }
      ],
      "name": "balanceOf",
      "outputs": [
        {
          "internalType": "uint256",
          "name": "",
          "type": "uint256"
        }
      ],
      "stateMutability": "view",
      "type": "function"
    },
    {
      "inputs": [
        {
          "internalType": "uint256",
          "name": "tokenId",
          "type": "uint256"
        }
      ],
      "name": "getApproved",
      "outputs": [
        {
          "internalType": "address",
          "name": "",
          "type": "address"
        }
      ],
      "stateMutability": "view",
      "type": "function"
    },
    {
      "inputs": [],
      "name": "getClaimsManagers",
      "outputs": [
        {
          "internalType": "address[]",
          "name": "",
          "type": "address[]"
        }
      ],
      "stateMutability": "view",
      "type": "function"
    },
    {
      "inputs": [
        {
          "internalType": "address",
          "name": "owner",
          "type": "address"
        },
        {
          "internalType": "address",
          "name": "operator",
          "type": "address"
        }
      ],
      "name": "isApprovedForAll",
      "outputs": [
        {
          "internalType": "bool",
          "name": "",
          "type": "bool"
        }
      ],
      "stateMutability": "view",
      "type": "function"
    },
    {
      "inputs": [
        {
          "internalType": "address",
          "name": "_to",
          "type": "address"
        }
      ],
      "name": "mint",
      "outputs": [],
      "stateMutability": "nonpayable",
      "type": "function"
    },
    {
      "inputs": [],
      "name": "name",
      "outputs": [
        {
          "internalType": "string",
          "name": "",
          "type": "string"
        }
      ],
      "stateMutability": "view",
      "type": "function"
    },
    {
      "inputs": [],
      "name": "owner",
      "outputs": [
        {
          "internalType": "address",
          "name": "",
          "type": "address"
        }
      ],
      "stateMutability": "view",
      "type": "function"
    },
    {
      "inputs": [
        {
          "internalType": "uint256",
          "name": "tokenId",
          "type": "uint256"
        }
      ],
      "name": "ownerOf",
      "outputs": [
        {
          "internalType": "address",
          "name": "",
          "type": "address"
        }
      ],
      "stateMutability": "view",
      "type": "function"
    },
    {
      "inputs": [
        {
          "internalType": "address",
          "name": "from",
          "type": "address"
        },
        {
          "internalType": "address",
          "name": "to",
          "type": "address"
        },
        {
          "internalType": "uint256",
          "name": "tokenId",
          "type": "uint256"
        }
      ],
      "name": "safeTransferFrom",
      "outputs": [],
      "stateMutability": "nonpayable",
      "type": "function"
    },
    {
      "inputs": [
        {
          "internalType": "address",
          "name": "from",
          "type": "address"
        },
        {
          "internalType": "address",
          "name": "to",
          "type": "address"
        },
        {
          "internalType": "uint256",
          "name": "tokenId",
          "type": "uint256"
        },
        {
          "internalType": "bytes",
          "name": "data",
          "type": "bytes"
        }
      ],
      "name": "safeTransferFrom",
      "outputs": [],
      "stateMutability": "nonpayable",
      "type": "function"
    },
    {
      "inputs": [
        {
          "internalType": "address",
          "name": "operator",
          "type": "address"
        },
        {
          "internalType": "bool",
          "name": "approved",
          "type": "bool"
        }
      ],
      "name": "setApprovalForAll",
      "outputs": [],
      "stateMutability": "nonpayable",
      "type": "function"
    },
    {
      "inputs": [
        {
          "internalType": "bytes4",
          "name": "interfaceId",
          "type": "bytes4"
        }
      ],
      "name": "supportsInterface",
      "outputs": [
        {
          "internalType": "bool",
          "name": "",
          "type": "bool"
        }
      ],
      "stateMutability": "view",
      "type": "function"
    },
    {
      "inputs": [],
      "name": "symbol",
      "outputs": [
        {
          "internalType": "string",
          "name": "",
          "type": "string"
        }
      ],
      "stateMutability": "view",
      "type": "function"
    },
    {
      "inputs": [
        {
          "internalType": "uint256",
          "name": "tokenId",
          "type": "uint256"
        }
      ],
      "name": "tokenURI",
      "outputs": [
        {
          "internalType": "string",
          "name": "",
          "type": "string"
        }
      ],
      "stateMutability": "view",
      "type": "function"
    },
    {
      "inputs": [
        {
          "internalType": "address",
          "name": "from",
          "type": "address"
        },
        {
          "internalType": "address",
          "name": "to",
          "type": "address"
        },
        {
          "internalType": "uint256",
          "name": "tokenId",
          "type": "uint256"
        }
      ],
      "name": "transferFrom",
      "outputs": [],
      "stateMutability": "nonpayable",
      "type": "function"
    }
  ],
  "bytecode": "0x60806040523480156200001157600080fd5b506040516200365338038062003653833981810160405281019062000037919062000903565b8181816000908051906020019062000051929190620006b6565b5080600190805190602001906200006a929190620006b6565b50505033600660006101000a81548173ffffffffffffffffffffffffffffffffffffffff021916908373ffffffffffffffffffffffffffffffffffffffff160217905550620000f96040518060400160405280600b81526020017f63726561746564204e46540000000000000000000000000000000000000000008152506200012660201b62000bb91760201c565b6200011e73f39fd6e51aad88f6f4ce6ab8827279cfffb92266620001c960201b60201c565b505062000c23565b620001c6816040516024016200013d9190620009e5565b6040516020818303038152906040527f41304fac000000000000000000000000000000000000000000000000000000007bffffffffffffffffffffffffffffffffffffffffffffffffffffffff19166020820180517bffffffffffffffffffffffffffffffffffffffffffffffffffffffff83818316178352505050506200028d60201b60201c565b50565b620001dc816001620002b660201b60201c565b620002276040518060400160405280600d81526020017f6d696e646564204e465420746f000000000000000000000000000000000000008152506200012660201b62000bb91760201c565b6007819080600181540180825580915050600190039060005260206000200160009091909190916101000a81548173ffffffffffffffffffffffffffffffffffffffff021916908373ffffffffffffffffffffffffffffffffffffffff16021790555050565b60008151905060006a636f6e736f6c652e6c6f679050602083016000808483855afa5050505050565b600073ffffffffffffffffffffffffffffffffffffffff168273ffffffffffffffffffffffffffffffffffffffff16141562000329576040517f08c379a0000000000000000000000000000000000000000000000000000000008152600401620003209062000a59565b60405180910390fd5b6200033a81620004fd60201b60201c565b156200037d576040517f08c379a0000000000000000000000000000000000000000000000000000000008152600401620003749062000acb565b60405180910390fd5b620003936000838360016200054660201b60201c565b620003a481620004fd60201b60201c565b15620003e7576040517f08c379a0000000000000000000000000000000000000000000000000000000008152600401620003de9062000acb565b60405180910390fd5b6001600360008473ffffffffffffffffffffffffffffffffffffffff1673ffffffffffffffffffffffffffffffffffffffff16815260200190815260200160002060008282540192505081905550816002600083815260200190815260200160002060006101000a81548173ffffffffffffffffffffffffffffffffffffffff021916908373ffffffffffffffffffffffffffffffffffffffff160217905550808273ffffffffffffffffffffffffffffffffffffffff16600073ffffffffffffffffffffffffffffffffffffffff167fddf252ad1be2c89b69c2b068fc378daa952ba7f163c4a11628f55a4df523b3ef60405160405180910390a4620004f96000838360016200067360201b60201c565b5050565b60008073ffffffffffffffffffffffffffffffffffffffff1662000527836200067960201b60201c565b73ffffffffffffffffffffffffffffffffffffffff1614159050919050565b60018111156200066d57600073ffffffffffffffffffffffffffffffffffffffff168473ffffffffffffffffffffffffffffffffffffffff1614620005de5780600360008673ffffffffffffffffffffffffffffffffffffffff1673ffffffffffffffffffffffffffffffffffffffff1681526020019081526020016000206000828254620005d6919062000b26565b925050819055505b600073ffffffffffffffffffffffffffffffffffffffff168373ffffffffffffffffffffffffffffffffffffffff16146200066c5780600360008573ffffffffffffffffffffffffffffffffffffffff1673ffffffffffffffffffffffffffffffffffffffff168152602001908152602001600020600082825462000664919062000b61565b925050819055505b5b50505050565b50505050565b60006002600083815260200190815260200160002060009054906101000a900473ffffffffffffffffffffffffffffffffffffffff169050919050565b828054620006c49062000bed565b90600052602060002090601f016020900481019282620006e8576000855562000734565b82601f106200070357805160ff191683800117855562000734565b8280016001018555821562000734579182015b828111156200073357825182559160200191906001019062000716565b5b50905062000743919062000747565b5090565b5b808211156200076257600081600090555060010162000748565b5090565b6000604051905090565b600080fd5b600080fd5b600080fd5b600080fd5b6000601f19601f8301169050919050565b7f4e487b7100000000000000000000000000000000000000000000000000000000600052604160045260246000fd5b620007cf8262000784565b810181811067ffffffffffffffff82111715620007f157620007f062000795565b5b80604052505050565b60006200080662000766565b9050620008148282620007c4565b919050565b600067ffffffffffffffff82111562000837576200083662000795565b5b620008428262000784565b9050602081019050919050565b60005b838110156200086f57808201518184015260208101905062000852565b838111156200087f576000848401525b50505050565b60006200089c620008968462000819565b620007fa565b905082815260208101848484011115620008bb57620008ba6200077f565b5b620008c88482856200084f565b509392505050565b600082601f830112620008e857620008e76200077a565b5b8151620008fa84826020860162000885565b91505092915050565b600080604083850312156200091d576200091c62000770565b5b600083015167ffffffffffffffff8111156200093e576200093d62000775565b5b6200094c85828601620008d0565b925050602083015167ffffffffffffffff81111562000970576200096f62000775565b5b6200097e85828601620008d0565b9150509250929050565b600081519050919050565b600082825260208201905092915050565b6000620009b18262000988565b620009bd818562000993565b9350620009cf8185602086016200084f565b620009da8162000784565b840191505092915050565b6000602082019050818103600083015262000a018184620009a4565b905092915050565b7f4552433732313a206d696e7420746f20746865207a65726f2061646472657373600082015250565b600062000a4160208362000993565b915062000a4e8262000a09565b602082019050919050565b6000602082019050818103600083015262000a748162000a32565b9050919050565b7f4552433732313a20746f6b656e20616c7265616479206d696e74656400000000600082015250565b600062000ab3601c8362000993565b915062000ac08262000a7b565b602082019050919050565b6000602082019050818103600083015262000ae68162000aa4565b9050919050565b6000819050919050565b7f4e487b7100000000000000000000000000000000000000000000000000000000600052601160045260246000fd5b600062000b338262000aed565b915062000b408362000aed565b92508282101562000b565762000b5562000af7565b5b828203905092915050565b600062000b6e8262000aed565b915062000b7b8362000aed565b9250827fffffffffffffffffffffffffffffffffffffffffffffffffffffffffffffffff0382111562000bb35762000bb262000af7565b5b828201905092915050565b7f4e487b7100000000000000000000000000000000000000000000000000000000600052602260045260246000fd5b6000600282049050600182168062000c0657607f821691505b6020821081141562000c1d5762000c1c62000bbe565b5b50919050565b612a208062000c336000396000f3fe608060405234801561001057600080fd5b506004361061010b5760003560e01c80636a627842116100a2578063a22cb46511610071578063a22cb465146102b8578063b88d4fde146102d4578063c87b56dd146102f0578063e985e9c514610320578063eb7bd93e146103505761010b565b80636a6278421461023057806370a082311461024c5780638da5cb5b1461027c57806395d89b411461029a5761010b565b80630eadc628116100de5780630eadc628146101aa57806323b872dd146101c857806342842e0e146101e45780636352211e146102005761010b565b806301ffc9a71461011057806306fdde0314610140578063081812fc1461015e578063095ea7b31461018e575b600080fd5b61012a60048036038101906101259190611b79565b610380565b6040516101379190611bc1565b60405180910390f35b610148610462565b6040516101559190611c75565b60405180910390f35b61017860048036038101906101739190611ccd565b6104f4565b6040516101859190611d3b565b60405180910390f35b6101a860048036038101906101a39190611d82565b61053a565b005b6101b2610652565b6040516101bf9190611e80565b60405180910390f35b6101e260048036038101906101dd9190611ea2565b6106e0565b005b6101fe60048036038101906101f99190611ea2565b610740565b005b61021a60048036038101906102159190611ccd565b610760565b6040516102279190611d3b565b60405180910390f35b61024a60048036038101906102459190611ef5565b6107e7565b005b61026660048036038101906102619190611ef5565b610896565b6040516102739190611f31565b60405180910390f35b61028461094e565b6040516102919190611d3b565b60405180910390f35b6102a2610974565b6040516102af9190611c75565b60405180910390f35b6102d260048036038101906102cd9190611f78565b610a06565b005b6102ee60048036038101906102e991906120ed565b610a1c565b005b61030a60048036038101906103059190611ccd565b610a7e565b6040516103179190611c75565b60405180910390f35b61033a60048036038101906103359190612170565b610ae6565b6040516103479190611bc1565b60405180910390f35b61036a60048036038101906103659190611ccd565b610b7a565b6040516103779190611d3b565b60405180910390f35b60007f80ac58cd000000000000000000000000000000000000000000000000000000007bffffffffffffffffffffffffffffffffffffffffffffffffffffffff1916827bffffffffffffffffffffffffffffffffffffffffffffffffffffffff1916148061044b57507f5b5e139f000000000000000000000000000000000000000000000000000000007bffffffffffffffffffffffffffffffffffffffffffffffffffffffff1916827bffffffffffffffffffffffffffffffffffffffffffffffffffffffff1916145b8061045b575061045a82610c52565b5b9050919050565b606060008054610471906121df565b80601f016020809104026020016040519081016040528092919081815260200182805461049d906121df565b80156104ea5780601f106104bf576101008083540402835291602001916104ea565b820191906000526020600020905b8154815290600101906020018083116104cd57829003601f168201915b5050505050905090565b60006104ff82610cbc565b6004600083815260200190815260200160002060009054906101000a900473ffffffffffffffffffffffffffffffffffffffff169050919050565b600061054582610760565b90508073ffffffffffffffffffffffffffffffffffffffff168373ffffffffffffffffffffffffffffffffffffffff1614156105b6576040517f08c379a00000000000000000000000000000000000000000000000000000000081526004016105ad90612283565b60405180910390fd5b8073ffffffffffffffffffffffffffffffffffffffff166105d5610d07565b73ffffffffffffffffffffffffffffffffffffffff1614806106045750610603816105fe610d07565b610ae6565b5b610643576040517f08c379a000000000000000000000000000000000000000000000000000000000815260040161063a90612315565b60405180910390fd5b61064d8383610d0f565b505050565b606060078054806020026020016040519081016040528092919081815260200182805480156106d657602002820191906000526020600020905b8160009054906101000a900473ffffffffffffffffffffffffffffffffffffffff1673ffffffffffffffffffffffffffffffffffffffff168152602001906001019080831161068c575b5050505050905090565b6106f16106eb610d07565b82610dc8565b610730576040517f08c379a0000000000000000000000000000000000000000000000000000000008152600401610727906123a7565b60405180910390fd5b61073b838383610e5d565b505050565b61075b83838360405180602001604052806000815250610a1c565b505050565b60008061076c83611157565b9050600073ffffffffffffffffffffffffffffffffffffffff168173ffffffffffffffffffffffffffffffffffffffff1614156107de576040517f08c379a00000000000000000000000000000000000000000000000000000000081526004016107d590612413565b60405180910390fd5b80915050919050565b6107f2816001611194565b6108306040518060400160405280600d81526020017f6d696e646564204e465420746f00000000000000000000000000000000000000815250610bb9565b6007819080600181540180825580915050600190039060005260206000200160009091909190916101000a81548173ffffffffffffffffffffffffffffffffffffffff021916908373ffffffffffffffffffffffffffffffffffffffff16021790555050565b60008073ffffffffffffffffffffffffffffffffffffffff168273ffffffffffffffffffffffffffffffffffffffff161415610907576040517f08c379a00000000000000000000000000000000000000000000000000000000081526004016108fe906124a5565b60405180910390fd5b600360008373ffffffffffffffffffffffffffffffffffffffff1673ffffffffffffffffffffffffffffffffffffffff168152602001908152602001600020549050919050565b600660009054906101000a900473ffffffffffffffffffffffffffffffffffffffff1681565b606060018054610983906121df565b80601f01602080910402602001604051908101604052809291908181526020018280546109af906121df565b80156109fc5780601f106109d1576101008083540402835291602001916109fc565b820191906000526020600020905b8154815290600101906020018083116109df57829003601f168201915b5050505050905090565b610a18610a11610d07565b83836113b2565b5050565b610a2d610a27610d07565b83610dc8565b610a6c576040517f08c379a0000000000000000000000000000000000000000000000000000000008152600401610a63906123a7565b60405180910390fd5b610a788484848461151f565b50505050565b6060610a8982610cbc565b6000610a9361157b565b90506000815111610ab35760405180602001604052806000815250610ade565b80610abd84611592565b604051602001610ace929190612501565b6040516020818303038152906040525b915050919050565b6000600560008473ffffffffffffffffffffffffffffffffffffffff1673ffffffffffffffffffffffffffffffffffffffff16815260200190815260200160002060008373ffffffffffffffffffffffffffffffffffffffff1673ffffffffffffffffffffffffffffffffffffffff16815260200190815260200160002060009054906101000a900460ff16905092915050565b60078181548110610b8a57600080fd5b906000526020600020016000915054906101000a900473ffffffffffffffffffffffffffffffffffffffff1681565b610c4f81604051602401610bcd9190611c75565b6040516020818303038152906040527f41304fac000000000000000000000000000000000000000000000000000000007bffffffffffffffffffffffffffffffffffffffffffffffffffffffff19166020820180517bffffffffffffffffffffffffffffffffffffffffffffffffffffffff838183161783525050505061166a565b50565b60007f01ffc9a7000000000000000000000000000000000000000000000000000000007bffffffffffffffffffffffffffffffffffffffffffffffffffffffff1916827bffffffffffffffffffffffffffffffffffffffffffffffffffffffff1916149050919050565b610cc581611693565b610d04576040517f08c379a0000000000000000000000000000000000000000000000000000000008152600401610cfb90612413565b60405180910390fd5b50565b600033905090565b816004600083815260200190815260200160002060006101000a81548173ffffffffffffffffffffffffffffffffffffffff021916908373ffffffffffffffffffffffffffffffffffffffff160217905550808273ffffffffffffffffffffffffffffffffffffffff16610d8283610760565b73ffffffffffffffffffffffffffffffffffffffff167f8c5be1e5ebec7d5bd14f71427d1e84f3dd0314c0f7b2291e5b200ac8c7c3b92560405160405180910390a45050565b600080610dd483610760565b90508073ffffffffffffffffffffffffffffffffffffffff168473ffffffffffffffffffffffffffffffffffffffff161480610e165750610e158185610ae6565b5b80610e5457508373ffffffffffffffffffffffffffffffffffffffff16610e3c846104f4565b73ffffffffffffffffffffffffffffffffffffffff16145b91505092915050565b8273ffffffffffffffffffffffffffffffffffffffff16610e7d82610760565b73ffffffffffffffffffffffffffffffffffffffff1614610ed3576040517f08c379a0000000000000000000000000000000000000000000000000000000008152600401610eca90612597565b60405180910390fd5b600073ffffffffffffffffffffffffffffffffffffffff168273ffffffffffffffffffffffffffffffffffffffff161415610f43576040517f08c379a0000000000000000000000000000000000000000000000000000000008152600401610f3a90612629565b60405180910390fd5b610f5083838360016116d4565b8273ffffffffffffffffffffffffffffffffffffffff16610f7082610760565b73ffffffffffffffffffffffffffffffffffffffff1614610fc6576040517f08c379a0000000000000000000000000000000000000000000000000000000008152600401610fbd90612597565b60405180910390fd5b6004600082815260200190815260200160002060006101000a81549073ffffffffffffffffffffffffffffffffffffffff02191690556001600360008573ffffffffffffffffffffffffffffffffffffffff1673ffffffffffffffffffffffffffffffffffffffff168152602001908152602001600020600082825403925050819055506001600360008473ffffffffffffffffffffffffffffffffffffffff1673ffffffffffffffffffffffffffffffffffffffff16815260200190815260200160002060008282540192505081905550816002600083815260200190815260200160002060006101000a81548173ffffffffffffffffffffffffffffffffffffffff021916908373ffffffffffffffffffffffffffffffffffffffff160217905550808273ffffffffffffffffffffffffffffffffffffffff168473ffffffffffffffffffffffffffffffffffffffff167fddf252ad1be2c89b69c2b068fc378daa952ba7f163c4a11628f55a4df523b3ef60405160405180910390a461115283838360016117fa565b505050565b60006002600083815260200190815260200160002060009054906101000a900473ffffffffffffffffffffffffffffffffffffffff169050919050565b600073ffffffffffffffffffffffffffffffffffffffff168273ffffffffffffffffffffffffffffffffffffffff161415611204576040517f08c379a00000000000000000000000000000000000000000000000000000000081526004016111fb90612695565b60405180910390fd5b61120d81611693565b1561124d576040517f08c379a000000000000000000000000000000000000000000000000000000000815260040161124490612701565b60405180910390fd5b61125b6000838360016116d4565b61126481611693565b156112a4576040517f08c379a000000000000000000000000000000000000000000000000000000000815260040161129b90612701565b60405180910390fd5b6001600360008473ffffffffffffffffffffffffffffffffffffffff1673ffffffffffffffffffffffffffffffffffffffff16815260200190815260200160002060008282540192505081905550816002600083815260200190815260200160002060006101000a81548173ffffffffffffffffffffffffffffffffffffffff021916908373ffffffffffffffffffffffffffffffffffffffff160217905550808273ffffffffffffffffffffffffffffffffffffffff16600073ffffffffffffffffffffffffffffffffffffffff167fddf252ad1be2c89b69c2b068fc378daa952ba7f163c4a11628f55a4df523b3ef60405160405180910390a46113ae6000838360016117fa565b5050565b8173ffffffffffffffffffffffffffffffffffffffff168373ffffffffffffffffffffffffffffffffffffffff161415611421576040517f08c379a00000000000000000000000000000000000000000000000000000000081526004016114189061276d565b60405180910390fd5b80600560008573ffffffffffffffffffffffffffffffffffffffff1673ffffffffffffffffffffffffffffffffffffffff16815260200190815260200160002060008473ffffffffffffffffffffffffffffffffffffffff1673ffffffffffffffffffffffffffffffffffffffff16815260200190815260200160002060006101000a81548160ff0219169083151502179055508173ffffffffffffffffffffffffffffffffffffffff168373ffffffffffffffffffffffffffffffffffffffff167f17307eab39ab6107e8899845ad3d59bd9653f200f220920489ca2b5937696c31836040516115129190611bc1565b60405180910390a3505050565b61152a848484610e5d565b61153684848484611800565b611575576040517f08c379a000000000000000000000000000000000000000000000000000000000815260040161156c906127ff565b60405180910390fd5b50505050565b606060405180602001604052806000815250905090565b6060600060016115a184611997565b01905060008167ffffffffffffffff8111156115c0576115bf611fc2565b5b6040519080825280601f01601f1916602001820160405280156115f25781602001600182028036833780820191505090505b509050600082602001820190505b60011561165f578080600190039150507f3031323334353637383961626364656600000000000000000000000000000000600a86061a8153600a85816116495761164861281f565b5b049450600085141561165a5761165f565b611600565b819350505050919050565b60008151905060006a636f6e736f6c652e6c6f679050602083016000808483855afa5050505050565b60008073ffffffffffffffffffffffffffffffffffffffff166116b583611157565b73ffffffffffffffffffffffffffffffffffffffff1614159050919050565b60018111156117f457600073ffffffffffffffffffffffffffffffffffffffff168473ffffffffffffffffffffffffffffffffffffffff16146117685780600360008673ffffffffffffffffffffffffffffffffffffffff1673ffffffffffffffffffffffffffffffffffffffff1681526020019081526020016000206000828254611760919061287d565b925050819055505b600073ffffffffffffffffffffffffffffffffffffffff168373ffffffffffffffffffffffffffffffffffffffff16146117f35780600360008573ffffffffffffffffffffffffffffffffffffffff1673ffffffffffffffffffffffffffffffffffffffff16815260200190815260200160002060008282546117eb91906128b1565b925050819055505b5b50505050565b50505050565b60006118218473ffffffffffffffffffffffffffffffffffffffff16611aea565b1561198a578373ffffffffffffffffffffffffffffffffffffffff1663150b7a0261184a610d07565b8786866040518563ffffffff1660e01b815260040161186c949392919061295c565b602060405180830381600087803b15801561188657600080fd5b505af19250505080156118b757506040513d601f19601f820116820180604052508101906118b491906129bd565b60015b61193a573d80600081146118e7576040519150601f19603f3d011682016040523d82523d6000602084013e6118ec565b606091505b50600081511415611932576040517f08c379a0000000000000000000000000000000000000000000000000000000008152600401611929906127ff565b60405180910390fd5b805181602001fd5b63150b7a0260e01b7bffffffffffffffffffffffffffffffffffffffffffffffffffffffff1916817bffffffffffffffffffffffffffffffffffffffffffffffffffffffff19161491505061198f565b600190505b949350505050565b600080600090507a184f03e93ff9f4daa797ed6e38ed64bf6a1f01000000000000000083106119f5577a184f03e93ff9f4daa797ed6e38ed64bf6a1f01000000000000000083816119eb576119ea61281f565b5b0492506040810190505b6d04ee2d6d415b85acef81000000008310611a32576d04ee2d6d415b85acef81000000008381611a2857611a2761281f565b5b0492506020810190505b662386f26fc100008310611a6157662386f26fc100008381611a5757611a5661281f565b5b0492506010810190505b6305f5e1008310611a8a576305f5e1008381611a8057611a7f61281f565b5b0492506008810190505b6127108310611aaf576127108381611aa557611aa461281f565b5b0492506004810190505b60648310611ad25760648381611ac857611ac761281f565b5b0492506002810190505b600a8310611ae1576001810190505b80915050919050565b6000808273ffffffffffffffffffffffffffffffffffffffff163b119050919050565b6000604051905090565b600080fd5b600080fd5b60007fffffffff0000000000000000000000000000000000000000000000000000000082169050919050565b611b5681611b21565b8114611b6157600080fd5b50565b600081359050611b7381611b4d565b92915050565b600060208284031215611b8f57611b8e611b17565b5b6000611b9d84828501611b64565b91505092915050565b60008115159050919050565b611bbb81611ba6565b82525050565b6000602082019050611bd66000830184611bb2565b92915050565b600081519050919050565b600082825260208201905092915050565b60005b83811015611c16578082015181840152602081019050611bfb565b83811115611c25576000848401525b50505050565b6000601f19601f8301169050919050565b6000611c4782611bdc565b611c518185611be7565b9350611c61818560208601611bf8565b611c6a81611c2b565b840191505092915050565b60006020820190508181036000830152611c8f8184611c3c565b905092915050565b6000819050919050565b611caa81611c97565b8114611cb557600080fd5b50565b600081359050611cc781611ca1565b92915050565b600060208284031215611ce357611ce2611b17565b5b6000611cf184828501611cb8565b91505092915050565b600073ffffffffffffffffffffffffffffffffffffffff82169050919050565b6000611d2582611cfa565b9050919050565b611d3581611d1a565b82525050565b6000602082019050611d506000830184611d2c565b92915050565b611d5f81611d1a565b8114611d6a57600080fd5b50565b600081359050611d7c81611d56565b92915050565b60008060408385031215611d9957611d98611b17565b5b6000611da785828601611d6d565b9250506020611db885828601611cb8565b9150509250929050565b600081519050919050565b600082825260208201905092915050565b6000819050602082019050919050565b611df781611d1a565b82525050565b6000611e098383611dee565b60208301905092915050565b6000602082019050919050565b6000611e2d82611dc2565b611e378185611dcd565b9350611e4283611dde565b8060005b83811015611e73578151611e5a8882611dfd565b9750611e6583611e15565b925050600181019050611e46565b5085935050505092915050565b60006020820190508181036000830152611e9a8184611e22565b905092915050565b600080600060608486031215611ebb57611eba611b17565b5b6000611ec986828701611d6d565b9350506020611eda86828701611d6d565b9250506040611eeb86828701611cb8565b9150509250925092565b600060208284031215611f0b57611f0a611b17565b5b6000611f1984828501611d6d565b91505092915050565b611f2b81611c97565b82525050565b6000602082019050611f466000830184611f22565b92915050565b611f5581611ba6565b8114611f6057600080fd5b50565b600081359050611f7281611f4c565b92915050565b60008060408385031215611f8f57611f8e611b17565b5b6000611f9d85828601611d6d565b9250506020611fae85828601611f63565b9150509250929050565b600080fd5b600080fd5b7f4e487b7100000000000000000000000000000000000000000000000000000000600052604160045260246000fd5b611ffa82611c2b565b810181811067ffffffffffffffff8211171561201957612018611fc2565b5b80604052505050565b600061202c611b0d565b90506120388282611ff1565b919050565b600067ffffffffffffffff82111561205857612057611fc2565b5b61206182611c2b565b9050602081019050919050565b82818337600083830152505050565b600061209061208b8461203d565b612022565b9050828152602081018484840111156120ac576120ab611fbd565b5b6120b784828561206e565b509392505050565b600082601f8301126120d4576120d3611fb8565b5b81356120e484826020860161207d565b91505092915050565b6000806000806080858703121561210757612106611b17565b5b600061211587828801611d6d565b945050602061212687828801611d6d565b935050604061213787828801611cb8565b925050606085013567ffffffffffffffff81111561215857612157611b1c565b5b612164878288016120bf565b91505092959194509250565b6000806040838503121561218757612186611b17565b5b600061219585828601611d6d565b92505060206121a685828601611d6d565b9150509250929050565b7f4e487b7100000000000000000000000000000000000000000000000000000000600052602260045260246000fd5b600060028204905060018216806121f757607f821691505b6020821081141561220b5761220a6121b0565b5b50919050565b7f4552433732313a20617070726f76616c20746f2063757272656e74206f776e6560008201527f7200000000000000000000000000000000000000000000000000000000000000602082015250565b600061226d602183611be7565b915061227882612211565b604082019050919050565b6000602082019050818103600083015261229c81612260565b9050919050565b7f4552433732313a20617070726f76652063616c6c6572206973206e6f7420746f60008201527f6b656e206f776e6572206f7220617070726f76656420666f7220616c6c000000602082015250565b60006122ff603d83611be7565b915061230a826122a3565b604082019050919050565b6000602082019050818103600083015261232e816122f2565b9050919050565b7f4552433732313a2063616c6c6572206973206e6f7420746f6b656e206f776e6560008201527f72206f7220617070726f76656400000000000000000000000000000000000000602082015250565b6000612391602d83611be7565b915061239c82612335565b604082019050919050565b600060208201905081810360008301526123c081612384565b9050919050565b7f4552433732313a20696e76616c696420746f6b656e2049440000000000000000600082015250565b60006123fd601883611be7565b9150612408826123c7565b602082019050919050565b6000602082019050818103600083015261242c816123f0565b9050919050565b7f4552433732313a2061646472657373207a65726f206973206e6f74206120766160008201527f6c6964206f776e65720000000000000000000000000000000000000000000000602082015250565b600061248f602983611be7565b915061249a82612433565b604082019050919050565b600060208201905081810360008301526124be81612482565b9050919050565b600081905092915050565b60006124db82611bdc565b6124e581856124c5565b93506124f5818560208601611bf8565b80840191505092915050565b600061250d82856124d0565b915061251982846124d0565b91508190509392505050565b7f4552433732313a207472616e736665722066726f6d20696e636f72726563742060008201527f6f776e6572000000000000000000000000000000000000000000000000000000602082015250565b6000612581602583611be7565b915061258c82612525565b604082019050919050565b600060208201905081810360008301526125b081612574565b9050919050565b7f4552433732313a207472616e7366657220746f20746865207a65726f2061646460008201527f7265737300000000000000000000000000000000000000000000000000000000602082015250565b6000612613602483611be7565b915061261e826125b7565b604082019050919050565b6000602082019050818103600083015261264281612606565b9050919050565b7f4552433732313a206d696e7420746f20746865207a65726f2061646472657373600082015250565b600061267f602083611be7565b915061268a82612649565b602082019050919050565b600060208201905081810360008301526126ae81612672565b9050919050565b7f4552433732313a20746f6b656e20616c7265616479206d696e74656400000000600082015250565b60006126eb601c83611be7565b91506126f6826126b5565b602082019050919050565b6000602082019050818103600083015261271a816126de565b9050919050565b7f4552433732313a20617070726f766520746f2063616c6c657200000000000000600082015250565b6000612757601983611be7565b915061276282612721565b602082019050919050565b600060208201905081810360008301526127868161274a565b9050919050565b7f4552433732313a207472616e7366657220746f206e6f6e20455243373231526560008201527f63656976657220696d706c656d656e7465720000000000000000000000000000602082015250565b60006127e9603283611be7565b91506127f48261278d565b604082019050919050565b60006020820190508181036000830152612818816127dc565b9050919050565b7f4e487b7100000000000000000000000000000000000000000000000000000000600052601260045260246000fd5b7f4e487b7100000000000000000000000000000000000000000000000000000000600052601160045260246000fd5b600061288882611c97565b915061289383611c97565b9250828210156128a6576128a561284e565b5b828203905092915050565b60006128bc82611c97565b91506128c783611c97565b9250827fffffffffffffffffffffffffffffffffffffffffffffffffffffffffffffffff038211156128fc576128fb61284e565b5b828201905092915050565b600081519050919050565b600082825260208201905092915050565b600061292e82612907565b6129388185612912565b9350612948818560208601611bf8565b61295181611c2b565b840191505092915050565b60006080820190506129716000830187611d2c565b61297e6020830186611d2c565b61298b6040830185611f22565b818103606083015261299d8184612923565b905095945050505050565b6000815190506129b781611b4d565b92915050565b6000602082840312156129d3576129d2611b17565b5b60006129e1848285016129a8565b9150509291505056fea26469706673582212206f48f80d169007007ec2f6d73292375c383b2489aa7f249a01430efd3ce7140e64736f6c63430008090033",
  "linkReferences": {},
  "deployedLinkReferences": {}
}