{
  "_format": "hh-sol-artifact-1",
  "contractName": "Claims",
  "sourceName": "contracts/Claims.sol",
  "abi": [
    {
      "inputs": [],
      "stateMutability": "nonpayable",
      "type": "constructor"
    },
    {
      "inputs": [
        {
          "internalType": "uint256",
          "name": "insurerId",
          "type": "uint256"
        },
        {
          "internalType": "uint256",
          "name": "rootCauseId",
          "type": "uint256"
        },
        {
          "internalType": "bool",
          "name": "covered",
          "type": "bool"
        }
      ],
      "name": "AddInsurerRootCause",
      "outputs": [],
      "stateMutability": "nonpayable",
      "type": "function"
    },
    {
      "inputs": [
        {
          "internalType": "uint256",
          "name": "coverId",
          "type": "uint256"
        },
        {
          "internalType": "uint256",
          "name": "insurerId",
          "type": "uint256"
        },
        {
          "internalType": "address",
          "name": "coverBuyer",
          "type": "address"
        }
      ],
      "name": "addClaim",
      "outputs": [],
      "stateMutability": "nonpayable",
      "type": "function"
    },
    {
      "inputs": [
        {
          "internalType": "uint256",
          "name": "insurerId",
          "type": "uint256"
        },
        {
          "internalType": "uint256",
          "name": "rootCauseId",
          "type": "uint256"
        }
      ],
      "name": "checkIfCovered",
      "outputs": [
        {
          "internalType": "bool",
          "name": "",
          "type": "bool"
        }
      ],
      "stateMutability": "view",
      "type": "function"
    },
    {
      "inputs": [
        {
          "internalType": "uint256",
          "name": "coverId",
          "type": "uint256"
        },
        {
          "internalType": "uint256",
          "name": "insurerId",
          "type": "uint256"
        }
      ],
      "name": "checkIfExists",
      "outputs": [
        {
          "internalType": "uint256",
          "name": "",
          "type": "uint256"
        }
      ],
      "stateMutability": "view",
      "type": "function"
    },
    {
      "inputs": [],
      "name": "getClaims",
      "outputs": [
        {
          "components": [
            {
              "internalType": "uint256",
              "name": "coverId",
              "type": "uint256"
            },
            {
              "internalType": "uint256",
              "name": "insurerId",
              "type": "uint256"
            },
            {
              "internalType": "address",
              "name": "coverBuyer",
              "type": "address"
            },
            {
              "internalType": "uint256",
              "name": "submissionTime",
              "type": "uint256"
            },
            {
              "internalType": "uint256",
              "name": "status",
              "type": "uint256"
            }
          ],
          "internalType": "struct Claims.Claim[]",
          "name": "",
          "type": "tuple[]"
        }
      ],
      "stateMutability": "view",
      "type": "function"
    },
    {
      "inputs": [],
      "name": "getInsurerRootCauseList",
      "outputs": [
        {
          "components": [
            {
              "internalType": "uint256",
              "name": "insurerId",
              "type": "uint256"
            },
            {
              "internalType": "uint256",
              "name": "rootCauseId",
              "type": "uint256"
            },
            {
              "internalType": "bool",
              "name": "covered",
              "type": "bool"
            }
          ],
          "internalType": "struct Claims.insurerRootCause[]",
          "name": "",
          "type": "tuple[]"
        }
      ],
      "stateMutability": "view",
      "type": "function"
    },
    {
      "inputs": [],
      "name": "owner",
      "outputs": [
        {
          "internalType": "address",
          "name": "",
          "type": "address"
        }
      ],
      "stateMutability": "view",
      "type": "function"
    },
    {
      "inputs": [
        {
          "internalType": "uint256",
          "name": "coverId",
          "type": "uint256"
        },
        {
          "internalType": "uint256",
          "name": "rootCauseId",
          "type": "uint256"
        }
      ],
      "name": "processEvent",
      "outputs": [],
      "stateMutability": "nonpayable",
      "type": "function"
    }
  ],
  "bytecode": "0x60806040523480156200001157600080fd5b50336000806101000a81548173ffffffffffffffffffffffffffffffffffffffff021916908373ffffffffffffffffffffffffffffffffffffffff160217905550620000626200006860201b60201c565b620001ad565b6200007d60018060016200012a60201b60201c565b620000936001600260016200012a60201b60201c565b620000a96001600360006200012a60201b60201c565b620000be60026001806200012a60201b60201c565b620000d360028060006200012a60201b60201c565b620000e96002600360006200012a60201b60201c565b620000fe60036001806200012a60201b60201c565b6200011360038060016200012a60201b60201c565b6200012860038060016200012a60201b60201c565b565b600260405180606001604052808581526020018481526020018315158152509080600181540180825580915050600190039060005260206000209060030201600090919091909150600082015181600001556020820151816001015560408201518160020160006101000a81548160ff0219169083151502179055505050505050565b610fc880620001bd6000396000f3fe608060405234801561001057600080fd5b50600436106100885760003560e01c8063c52822f81161005b578063c52822f814610127578063c5ce280814610145578063de1694a414610163578063fc9ea1e01461017f57610088565b80630e6a97101461008d57806363e22f9d146100bd5780638da5cb5b146100ed578063c19687f31461010b575b600080fd5b6100a760048036038101906100a291906109bd565b61019b565b6040516100b49190610a18565b60405180910390f35b6100d760048036038101906100d291906109bd565b610267565b6040516100e49190610a42565b60405180910390f35b6100f5610402565b6040516101029190610a9e565b60405180910390f35b61012560048036038101906101209190610ae5565b610426565b005b61012f6104a9565b60405161013c9190610c6d565b60405180910390f35b61014d610586565b60405161015a9190610d8f565b60405180910390f35b61017d600480360381019061017891906109bd565b610614565b005b61019960048036038101906101949190610ddd565b61075d565b005b600080600090505b60028054905081101561025b5783600282815481106101c5576101c4610e30565b5b906000526020600020906003020160000154148015610208575082600282815481106101f4576101f3610e30565b5b906000526020600020906003020160010154145b15610248576002818154811061022157610220610e30565b5b906000526020600020906003020160020160009054906101000a900460ff16915050610261565b808061025390610e8e565b9150506101a3565b50600090505b92915050565b600080600090505b6001805490508110156103f657836001828154811061029157610290610e30565b5b9060005260206000209060050201600001541480156102d557506003600182815481106102c1576102c0610e30565b5b906000526020600020906005020160040154145b8015610305575082600182815481106102f1576102f0610e30565b5b906000526020600020906005020160010154145b156103145760039150506103fc565b836001828154811061032957610328610e30565b5b90600052602060002090600502016000015414801561036d575060046001828154811061035957610358610e30565b5b906000526020600020906005020160040154145b801561039d5750826001828154811061038957610388610e30565b5b906000526020600020906005020160010154145b156103ac5760049150506103fc565b83600182815481106103c1576103c0610e30565b5b90600052602060002090600502016000015414156103e35760029150506103fc565b80806103ee90610e8e565b91505061026f565b50600190505b92915050565b60008054906101000a900473ffffffffffffffffffffffffffffffffffffffff1681565b600260405180606001604052808581526020018481526020018315158152509080600181540180825580915050600190039060005260206000209060030201600090919091909150600082015181600001556020820151816001015560408201518160020160006101000a81548160ff0219169083151502179055505050505050565b60606001805480602002602001604051908101604052809291908181526020016000905b8282101561057d57838290600052602060002090600502016040518060a001604052908160008201548152602001600182015481526020016002820160009054906101000a900473ffffffffffffffffffffffffffffffffffffffff1673ffffffffffffffffffffffffffffffffffffffff1673ffffffffffffffffffffffffffffffffffffffff16815260200160038201548152602001600482015481525050815260200190600101906104cd565b50505050905090565b60606002805480602002602001604051908101604052809291908181526020016000905b8282101561060b578382906000526020600020906003020160405180606001604052908160008201548152602001600182015481526020016002820160009054906101000a900460ff161515151581525050815260200190600101906105aa565b50505050905090565b60005b60018054905081101561075857826001828154811061063957610638610e30565b5b90600052602060002090600502016000015414801561068357506106826001828154811061066a57610669610e30565b5b9060005260206000209060050201600101548361019b565b5b156106b45760036001828154811061069e5761069d610e30565b5b9060005260206000209060050201600401819055505b82600182815481106106c9576106c8610e30565b5b9060005260206000209060050201600001541480156107145750610712600182815481106106fa576106f9610e30565b5b9060005260206000209060050201600101548361019b565b155b156107455760046001828154811061072f5761072e610e30565b5b9060005260206000209060050201600401819055505b808061075090610e8e565b915050610617565b505050565b61079b6040518060400160405280601781526020017f7265616368656420636c61696d7320636f6e74726163740000000000000000008152506108c0565b60016040518060a001604052808581526020018481526020018373ffffffffffffffffffffffffffffffffffffffff1681526020014281526020016107e08686610267565b8152509080600181540180825580915050600190039060005260206000209060050201600090919091909150600082015181600001556020820151816001015560408201518160020160006101000a81548173ffffffffffffffffffffffffffffffffffffffff021916908373ffffffffffffffffffffffffffffffffffffffff160217905550606082015181600301556080820151816004015550506108bb6040518060400160405280600d81526020017f70757368656420636c61696d73000000000000000000000000000000000000008152506108c0565b505050565b610956816040516024016108d49190610f70565b6040516020818303038152906040527f41304fac000000000000000000000000000000000000000000000000000000007bffffffffffffffffffffffffffffffffffffffffffffffffffffffff19166020820180517bffffffffffffffffffffffffffffffffffffffffffffffffffffffff8381831617835250505050610959565b50565b60008151905060006a636f6e736f6c652e6c6f679050602083016000808483855afa5050505050565b600080fd5b6000819050919050565b61099a81610987565b81146109a557600080fd5b50565b6000813590506109b781610991565b92915050565b600080604083850312156109d4576109d3610982565b5b60006109e2858286016109a8565b92505060206109f3858286016109a8565b9150509250929050565b60008115159050919050565b610a12816109fd565b82525050565b6000602082019050610a2d6000830184610a09565b92915050565b610a3c81610987565b82525050565b6000602082019050610a576000830184610a33565b92915050565b600073ffffffffffffffffffffffffffffffffffffffff82169050919050565b6000610a8882610a5d565b9050919050565b610a9881610a7d565b82525050565b6000602082019050610ab36000830184610a8f565b92915050565b610ac2816109fd565b8114610acd57600080fd5b50565b600081359050610adf81610ab9565b92915050565b600080600060608486031215610afe57610afd610982565b5b6000610b0c868287016109a8565b9350506020610b1d868287016109a8565b9250506040610b2e86828701610ad0565b9150509250925092565b600081519050919050565b600082825260208201905092915050565b6000819050602082019050919050565b610b6d81610987565b82525050565b610b7c81610a7d565b82525050565b60a082016000820151610b986000850182610b64565b506020820151610bab6020850182610b64565b506040820151610bbe6040850182610b73565b506060820151610bd16060850182610b64565b506080820151610be46080850182610b64565b50505050565b6000610bf68383610b82565b60a08301905092915050565b6000602082019050919050565b6000610c1a82610b38565b610c248185610b43565b9350610c2f83610b54565b8060005b83811015610c60578151610c478882610bea565b9750610c5283610c02565b925050600181019050610c33565b5085935050505092915050565b60006020820190508181036000830152610c878184610c0f565b905092915050565b600081519050919050565b600082825260208201905092915050565b6000819050602082019050919050565b610cc4816109fd565b82525050565b606082016000820151610ce06000850182610b64565b506020820151610cf36020850182610b64565b506040820151610d066040850182610cbb565b50505050565b6000610d188383610cca565b60608301905092915050565b6000602082019050919050565b6000610d3c82610c8f565b610d468185610c9a565b9350610d5183610cab565b8060005b83811015610d82578151610d698882610d0c565b9750610d7483610d24565b925050600181019050610d55565b5085935050505092915050565b60006020820190508181036000830152610da98184610d31565b905092915050565b610dba81610a7d565b8114610dc557600080fd5b50565b600081359050610dd781610db1565b92915050565b600080600060608486031215610df657610df5610982565b5b6000610e04868287016109a8565b9350506020610e15868287016109a8565b9250506040610e2686828701610dc8565b9150509250925092565b7f4e487b7100000000000000000000000000000000000000000000000000000000600052603260045260246000fd5b7f4e487b7100000000000000000000000000000000000000000000000000000000600052601160045260246000fd5b6000610e9982610987565b91507fffffffffffffffffffffffffffffffffffffffffffffffffffffffffffffffff821415610ecc57610ecb610e5f565b5b600182019050919050565b600081519050919050565b600082825260208201905092915050565b60005b83811015610f11578082015181840152602081019050610ef6565b83811115610f20576000848401525b50505050565b6000601f19601f8301169050919050565b6000610f4282610ed7565b610f4c8185610ee2565b9350610f5c818560208601610ef3565b610f6581610f26565b840191505092915050565b60006020820190508181036000830152610f8a8184610f37565b90509291505056fea2646970667358221220c23973da3680dbe067dddaf2fb7de478141890b9c3ae898b37fc4d45288eda2664736f6c63430008090033",
  "linkReferences": {},
  "deployedLinkReferences": {}
}